{
    "contractName": "CanaryEnigma",
    "abi": [
        {
            "inputs": [
                {
                    "internalType": "uint256",
                    "name": "potSize",
                    "type": "uint256"
                },
                {
                    "internalType": "bytes32[]",
                    "name": "answerHashes",
                    "type": "bytes32[]"
                }
            ],
            "stateMutability": "payable",
            "type": "constructor"
        },
        {
            "anonymous": false,
            "inputs": [
                {
                    "indexed": true,
                    "internalType": "address",
                    "name": "previousOwner",
                    "type": "address"
                },
                {
                    "indexed": true,
                    "internalType": "address",
                    "name": "newOwner",
                    "type": "address"
                }
            ],
            "name": "OwnershipTransferred",
            "type": "event"
        },
        {
            "inputs": [
                {
                    "internalType": "uint256",
                    "name": "",
                    "type": "uint256"
                }
            ],
            "name": "ANSWER_HASHES",
            "outputs": [
                {
                    "internalType": "bytes32",
                    "name": "",
                    "type": "bytes32"
                }
            ],
            "stateMutability": "view",
            "type": "function"
        },
        {
            "inputs": [],
            "name": "POT_SIZE",
            "outputs": [
                {
                    "internalType": "uint256",
                    "name": "",
                    "type": "uint256"
                }
            ],
            "stateMutability": "view",
            "type": "function"
        },
        {
            "inputs": [],
            "name": "currentRiddle",
            "outputs": [
                {
                    "internalType": "uint256",
                    "name": "",
                    "type": "uint256"
                }
            ],
            "stateMutability": "view",
            "type": "function"
        },
        {
            "inputs": [],
            "name": "enigmaConcluded",
            "outputs": [
                {
                    "internalType": "bool",
                    "name": "",
                    "type": "bool"
                }
            ],
            "stateMutability": "view",
            "type": "function"
        },
        {
            "inputs": [],
            "name": "owner",
            "outputs": [
                {
                    "internalType": "address",
                    "name": "",
                    "type": "address"
                }
            ],
            "stateMutability": "view",
            "type": "function"
        },
        {
            "inputs": [],
            "name": "potCashedOut",
            "outputs": [
                {
                    "internalType": "uint256",
                    "name": "",
                    "type": "uint256"
                }
            ],
            "stateMutability": "view",
            "type": "function"
        },
        {
            "inputs": [],
            "name": "renounceOwnership",
            "outputs": [],
            "stateMutability": "nonpayable",
            "type": "function"
        },
        {
            "inputs": [
                {
                    "internalType": "address",
                    "name": "newOwner",
                    "type": "address"
                }
            ],
            "name": "transferOwnership",
            "outputs": [],
            "stateMutability": "nonpayable",
            "type": "function"
        },
        {
            "inputs": [
                {
                    "internalType": "address",
                    "name": "sender",
                    "type": "address"
                },
                {
                    "internalType": "string",
                    "name": "answer",
                    "type": "string"
                }
            ],
            "name": "decipher",
            "outputs": [],
            "stateMutability": "nonpayable",
            "type": "function"
        },
        {
            "inputs": [],
            "name": "conclude",
            "outputs": [],
            "stateMutability": "nonpayable",
            "type": "function"
        },
        {
            "inputs": [],
            "name": "runningPot",
            "outputs": [
                {
                    "internalType": "uint256",
                    "name": "",
                    "type": "uint256"
                }
            ],
            "stateMutability": "view",
            "type": "function"
        },
        {
            "inputs": [
                {
                    "internalType": "string",
                    "name": "answer",
                    "type": "string"
                }
            ],
            "name": "verifyAnswer",
            "outputs": [
                {
                    "internalType": "bool",
                    "name": "",
                    "type": "bool"
                }
            ],
            "stateMutability": "view",
            "type": "function"
        },
        {
            "inputs": [],
            "name": "isEnigmaActive",
            "outputs": [
                {
                    "internalType": "bool",
                    "name": "",
                    "type": "bool"
                }
            ],
            "stateMutability": "view",
            "type": "function"
        }
    ],
    "bytecode": "0x6101006040526000600155600060025560405162000bf838038062000bf88339810160408190526200003191620001a7565b34841462000076576040517f08c379a00000000000000000000000000000000000000000000000000000000081526004016200006d906200028a565b60405180910390fd5b6200009083836401000000006200051c6200010382021704565b8414620000cb576040517f08c379a00000000000000000000000000000000000000000000000000000000081526004016200006d90620002c1565b608084905260a082905260c08390524260e08190526003558051620000f890600090602084019062000140565b5050505050620003a6565b60008262000114575060006200013a565b62000120828462000332565b9050816200012f8483620002f8565b146200013a57600080fd5b92915050565b8280548282559060005260206000209081019282156200017e579160200282015b828111156200017e57825182559160200191906001019062000161565b506200018c92915062000190565b5090565b5b808211156200018c576000815560010162000191565b60008060008060808587031215620001bd578384fd5b84519350602080860151935060408601519250606086015167ffffffffffffffff80821115620001eb578384fd5b818801915088601f830112620001ff578384fd5b81518181111562000214576200021462000377565b8381026040518582820101818110858211171562000236576200023662000377565b604052828152858101935084860182860187018d101562000255578788fd5b8795505b838610156200027957805185526001959095019493860193860162000259565b50989b979a50959850505050505050565b6020808252601d908201527f45746865722076616c75652073656e7420697320696e636f7272656374000000604082015260600190565b6020808252600e908201527f57726f6e6720506f742073697a65000000000000000000000000000000000000604082015260600190565b6000826200032d577f4e487b710000000000000000000000000000000000000000000000000000000081526012600452602481fd5b500490565b600081600019048311821515161562000372577f4e487b710000000000000000000000000000000000000000000000000000000081526011600452602481fd5b500290565b7f4e487b7100000000000000000000000000000000000000000000000000000000600052604160045260246000fd5b60805160a05160c05160e0516107f562000403600039600081816101db015261030801526000818161032c01526103730152600081816101b101526104fa0152600081816102de015281816103a201526103de01526107f56000f3fe608060405234801561001057600080fd5b50600436106100d1576000357c0100000000000000000000000000000000000000000000000000000000900480639a31b9291161008e5780639a31b92914610129578063e00feadf14610131578063e05816ef14610139578063e6d016c014610141578063ed42b0c114610154578063fa38a90d14610174576100d1565b8063236c13c6146100d657806332bc5530146100eb5780633ee1e9961461010957806357fff7e114610111578063781cd99d146101195780638141feb314610121575b600080fd5b6100e96100e436600461058d565b61017c565b005b6100f36102d6565b604051610100919061068a565b60405180910390f35b6100f36102dc565b6100f3610300565b6100f3610306565b6100f361032a565b6100f361034e565b6100f3610354565b6100f3610411565b6100f361014f36600461062e565b610450565b61016761016236600461058d565b610471565b604051610100919061067f565b6100f36104f8565b6000610186610354565b116101af5760405160e560020a62461bcd0281526004016101a6906106ca565b60405180910390fd5b7f00000000000000000000000000000000000000000000000000000000000000006018603c806101ff427f0000000000000000000000000000000000000000000000000000000000000000610552565b6102099190610719565b6102139190610719565b61021d9190610719565b1061023d5760405160e560020a62461bcd0281526004016101a6906106ca565b61024681610471565b6102655760405160e560020a62461bcd0281526004016101a690610693565b600061026f610354565b60018054919250600061028183610772565b919050555042600381905550806002600082825461029f9190610701565b9091555050604051339082156108fc029083906000818181858888f193505050501580156102d1573d6000803e3d6000fd5b505050565b60015481565b7f000000000000000000000000000000000000000000000000000000000000000081565b60025481565b7f000000000000000000000000000000000000000000000000000000000000000081565b7f000000000000000000000000000000000000000000000000000000000000000081565b60035481565b60008061035f610411565b90506000610398610371836001610572565b7f00000000000000000000000000000000000000000000000000000000000000009061051c565b90506103cf6002547f000000000000000000000000000000000000000000000000000000000000000061055290919063ffffffff16565b811061040857600254610403907f000000000000000000000000000000000000000000000000000000000000000090610552565b61040a565b805b9250505090565b60006018603c8061042d6003544261055290919063ffffffff16565b6104379190610719565b6104419190610719565b61044b9190610719565b905090565b6000818154811061046057600080fd5b600091825260209091200154905081565b60008054600154106104985760405160e560020a62461bcd0281526004016101a6906106ca565b6000600154815481106104be5760e060020a634e487b7102600052603260045260246000fd5b9060005260206000200154826040516020016104da9190610646565b60405160208183030381529060405280519060200120149050919050565b7f000000000000000000000000000000000000000000000000000000000000000081565b60008261052b5750600061054c565b610535828461073c565b9050816105428483610719565b1461054c57600080fd5b92915050565b60008282111561056157600080fd5b61056b828461075b565b9392505050565b600061057e8284610701565b90508281101561054c57600080fd5b6000602080838503121561059f578182fd5b823567ffffffffffffffff808211156105b6578384fd5b818501915085601f8301126105c9578384fd5b8135818111156105db576105db6107a6565b604051601f8201601f19168101850183811182821017156105fe576105fe6107a6565b6040528181528382018501881015610614578586fd5b818585018683013790810190930193909352509392505050565b60006020828403121561063f578081fd5b5035919050565b60008251815b81811015610666576020818601810151858301520161064c565b818111156106745782828501525b509190910192915050565b901515815260200190565b90815260200190565b6020808252600c908201527f57726f6e6720616e737765720000000000000000000000000000000000000000604082015260600190565b60208082526017908201527f456e69676d61206e6f206c6f6e67657220616374697665000000000000000000604082015260600190565b600082198211156107145761071461078d565b500190565b6000826107375760e060020a634e487b710281526012600452602481fd5b500490565b60008160001904831182151516156107565761075661078d565b500290565b60008282101561076d5761076d61078d565b500390565b60006000198214156107865761078661078d565b5060010190565b60e060020a634e487b7102600052601160045260246000fd5b60e060020a634e487b7102600052604160045260246000fdfea2646970667358221220628496efac0ced4f53c32aea60f50193e497f93ea83a54f4943bd4c23e81ab5d64736f6c63430008000033",
    "immutableReferences": {
        "7": [
            {
                "length": 32,
                "start": 734
            },
            {
                "length": 32,
                "start": 930
            },
            {
                "length": 32,
                "start": 990
            }
        ],
        "9": [
            {
                "length": 32,
                "start": 433
            },
            {
                "length": 32,
                "start": 1274
            }
        ],
        "11": [
            {
                "length": 32,
                "start": 812
            },
            {
                "length": 32,
                "start": 883
            }
        ],
        "13": [
            {
                "length": 32,
                "start": 475
            },
            {
                "length": 32,
                "start": 776
            }
        ]
    },
    "source": "pragma solidity ^0.8.0;\n\nimport \"./utils/SafeMath.sol\";\n\ncontract CanaryEnigma {\n\n    using SafeMath for uint256;\n\n    uint256 public immutable POT_SIZE;\n    uint256 public immutable DURATION_IN_DAYS;\n    uint256 public immutable REWARD_PER_DAY;\n    uint256 public immutable START_TIMESTAMP;\n    bytes32[] public ANSWER_HASHES;\n    \n    uint256 public currentRiddle = 0;\n    uint256 public potCashedOut = 0;\n    uint256 public lastAnswerTimestamp;\n\n    constructor(\n        uint256 potSize,\n        uint256 rewardPerDay,\n        uint256 durationInDays,\n        bytes32[] memory answerHashes\n    ) payable {\n        require(potSize == msg.value, \"Ether value sent is incorrect\");\n        require(potSize  == rewardPerDay.mul(durationInDays), \"Wrong Pot size\");\n\n        POT_SIZE = potSize;\n        DURATION_IN_DAYS = durationInDays;\n        REWARD_PER_DAY = rewardPerDay;\n        START_TIMESTAMP = block.timestamp;\n        lastAnswerTimestamp = block.timestamp;\n        ANSWER_HASHES = answerHashes;\n    }\n\n    function decipher(string memory answer) public {\n        require(runningPot() > 0, \"Enigma no longer active\");\n        require(block.timestamp.sub(START_TIMESTAMP) / 60 / 60 / 24 < DURATION_IN_DAYS, \"Enigma no longer active\");\n        require(verifyAnswer(answer), \"Wrong answer\");\n\n        uint256 pot = runningPot();\n        currentRiddle++;\n        lastAnswerTimestamp = block.timestamp;\n        potCashedOut += pot;\n        payable(msg.sender).transfer(pot);\n    }\n\n    function runningPot() public view returns (uint256) {\n        uint256 elapsedDays = daysElapsedSinceLastAnswer();\n        uint256 pot = REWARD_PER_DAY.mul(elapsedDays.add(1));\n\n        return pot < POT_SIZE.sub(potCashedOut) ? pot : POT_SIZE.sub(potCashedOut); // Getting the min value of both\n    }\n\n    function daysElapsedSinceLastAnswer() public view returns (uint256) {\n        return block.timestamp.sub(lastAnswerTimestamp) / 60 / 60 / 24;\n    }\n\n    function verifyAnswer(string memory answer) public view returns (bool) {\n        require(currentRiddle < ANSWER_HASHES.length, \"Enigma no longer active\");\n\n        return keccak256(abi.encodePacked(answer)) == ANSWER_HASHES[currentRiddle];\n    }\n}\n",
    "sourcePath": "/Users/ggwp/ProjectCanary/contracts/contracts/CanaryEnigma.sol",
    "compiler": {
        "name": "solc",
        "version": "0.8.0+commit.c7dfd78e.Emscripten.clang"
    },
    "schemaVersion": "3.4.3",
    "updatedAt": "2021-08-30T13:11:37.361Z",
    "networkType": "ethereum",
    "devdoc": {
        "kind": "dev",
        "methods": {},
        "version": 1
    },
    "userdoc": {
        "kind": "user",
        "methods": {},
        "version": 1
    }
}